:020000040800F2
:10000000700C0020090900089502000897020008FA
:100010009B0200089F020008A302000800000000E5
:10002000000000000000000000000000A70200081F
:10003000A902000800000000AB020008AD020008A1
:1000400023090008230900082309000823090008E0
:1000500023090008230900082309000823090008D0
:1000600023090008230900082309000823090008C0
:1000700023090008230900082309000823090008B0
:1000800023090008230900082309000823090008A0
:100090002309000823090008230900082309000890
:1000A00023090008A32700082309000823090008E2
:1000B000650C0008230900084D0C000823090008FE
:1000C0002309000823090008230900082309000860
:1000D0002309000823090008230900089D160008C9
:1000E0002309000823090008230900082309000840
:1000F0002309000823090008230900082309000830
:10010000230900082309000823090008230900081F
:10011000230900082309000823090008230900080F
:1001200023090008230900082309000823090008FF
:1001300000F002F800F05FF80AA090E8000C82449A
:100140008344AAF10107DA4501D100F054F8AFF277
:10015000090EBAE80F0013F0010F18BFFB1A43F0A5
:10016000010318473CAD00005CAD00000A444FF0AD
:10017000000C10F8013B13F0070408BF10F8014B06
:100180001D1108BF10F8015B641E05D010F8016B4B
:10019000641E01F8016BF9D113F0080F1EBF10F8AF
:1001A000014BAD1C0C1B09D16D1E58BF01F801CBD2
:1001B000FAD505E014F8016B01F8016B6D1EF9D555
:1001C0009142D6D37047000000230024002500266A
:1001D000103A28BF78C1FBD8520728BF30C148BFAA
:1001E0000B607047642907F0FD82002070471FB53F
:1001F0001FBD10B510BD07F0C5FC1146FFF7F7FF96
:1002000000F00EF807F0E3FC03B4FFF7F2FF03BCC5
:1002100000F0F4FA30BF72B662B680F30888704717
:10022000092000F092FA482000F032F9022000F094
:1002300077FA012000F074FA00F086FB4FF4345195
:10024000482000F0F9FA4FF4165001F0D9F901F006
:1002500022F901F045FE002141F61F4000F0EEFBBF
:1002600000F042FC00F08DFC00F00EFD01F041FCBE
:1002700001F053FC41F61F41312000F097FB08E0EC
:100280004FF4FA7000F03CF901F0B6FE642000F083
:1002900037F9F5E7704700BFFEE700BFFEE700BF94
:1002A000FEE700BFFEE770477047704770470000E9
:1002B0000CB50020019000906C48006840F480303C
:1002C0006A49086000BF6948006800F40030009087
:1002D0000198401C0190009818B90198B0F5A06FE2
:1002E000F1D16248006800F4003010B101200090A4
:1002F00001E0002000900098012843D15C4800688C
:1003000040F010005A4908600846006820F00300D9
:1003100008600846006840F00200086053484068E2
:10032000524948600846406848600846406840F4C2
:10033000806048600846406820F47C1048600846A9
:10034000406840F4E81048600846006840F080705B
:10035000086000BF4548006800F000700028F9D030
:100360004248406820F00300404948600846406821
:1003700040F00200486000BF3C48406800F00C00BC
:100380000828F9D10CBD10B5FFF792FF10BD10B5CC
:100390003648006840F0010034490860084640686B
:1003A00034490840314948600846006832490840ED
:1003B0002E4908600846006820F48020086008463E
:1003C000406820F4FE0048604FF41F008860FFF78B
:1003D000DAFF4FF000602949086010BD10B5002118
:1003E00000200022214B5B6803F00C0121B104299D
:1003F00006D0082928D107E0214B224C236027E0B2
:100400001F4B204C236023E0184B5B6803F47010F3
:10041000164B5B6803F48032022303EB904022B951
:10042000194B4343174C23600DE0104B5B6803F4FA
:10043000003323B1144B4343124C236003E0104BB1
:100440004343104C236003E00D4B0E4C236000BF70
:1004500000BF064B5B68C3F303130C4CE15C094B14
:100460001B68CB40074C236010BD00000010024009
:10047000002002400000FFF8FFFFF6FE08ED00E05C
:1004800000127A003000002000093D0034000020F6
:100490004FF0E021096921F004014FF0E0221161E1
:1004A000C21700EB5272C2F3C702234B1A701946EF
:1004B000097801EB4102C2EBC1114FF6FF7202EA6B
:1004C000C1011E4A1180704701461B4A12784A43F7
:1004D0004FF0E0235A6100229A6101221A6100BFA5
:1004E0004FF0E022106900F001021AB100F48032EE
:1004F000002AF5D000224FF0E0231A619A6170477C
:1005000001460E4A12884A434FF0E0235A61002206
:100510009A6101221A6100BF4FF0E022106900F0D9
:1005200001021AB100F48032002AF5D000224FF007
:10053000E0231A619A6170474400002046000020C1
:10054000A34A0A400243A34B1A607047014607239F
:1005500023EA010212029F4B1B1D18684FF6FF038E
:1005600018409D4B184310439A4B1B1D1860704751
:100570002DE9F0410746884614461D462846FFF7F8
:10058000E5FFC5F1040007FA00F60F20284100EA54
:100590000800064306F00F06E21704EBD262521180
:1005A000920002F1E022D2F800212146E31704EB89
:1005B000D3635B11A4EB431C012303FA0CF31A432E
:1005C0002046E31704EBD3635B119B0003F1E023A8
:1005D000C3F800218148005D40EA06107F490855B4
:1005E000BDE8F08170B504460B46CE1701EB967658
:1005F000C6F38700CE1701EB9676B610A1EB860600
:10060000B606350E764B9B6943F00103744EB36119
:100610004FEAB63353F820300F26AE40B343714E45
:1006200046F82030334653F8203004FA05F61E43CE
:100630006C4B43F820606C4B1B6801268E403343A3
:10064000694E336002F0010343B1674B0C331B6802
:1006500001268E403343644E0C36336002F00203B1
:1006600043B1614B08331E6801238B401E435E4B30
:1006700008331E6070BD00B5002059490861C8608C
:100680001420486100208861C8610846006840F075
:1006900001000860084640685449084050494860D5
:1006A00008460068524908404D49086008460068FD
:1006B00020F4802008600846406820F4FE0048606E
:1006C0000020886000214FF00060FFF739FF00BD77
:1006D00010B540480830006840F004003D4908313A
:1006E00008603F48C06940F080503D49C8614148BA
:1006F000406840F480703F4948600846006840F018
:10070000040008600846006840F002000860FFF737
:1007100081FD10BD3048001D2E49091D086070473D
:10072000014649062E4A926942F001022C4B9A6119
:100730002C4A083A526822F0E0622A4B083B5A6081
:100740001A4652680A435A60704730B5044600257D
:10075000FFF791FF2248006840F48030204908608C
:1007600000BF1F480068400C0028FAD04FF480609A
:100770001B494860A01EC4B20846406840EA844055
:1007800048600846406840F4803048601A48006875
:1007900040F03200184908601148006840F080704D
:1007A0000F49086000BF0E480068400E0028FAD0CC
:1007B0000B48406840F002000949486005E00848DD
:1007C0004068C0F3870505F00305022DF7D130BD61
:1007D00080FFFF1F08ED00E00000FA0500E400E0E4
:1007E0000010024008000140000401400000FFF832
:1007F000FFFFF6FE007000400020024000BF70477F
:100800003B4A1278012A0BD100BF3A4A128802F003
:100810004002002AF9D0C2B2364B1B1D1A800AE0F2
:1008200000BF354A128802F04002002AF9D0C2B255
:10083000314B1B1D1A8070472DE9F05F05460E46AF
:10084000300108F0F9FC81462C4905FB01F008F065
:10085000F3FC8246494608F0A5FB0746384608F0F7
:10086000B3FC84B2204608F0E7FC8346394608F022
:1008700028FE82464FF0834108F026FD814608F0AD
:10088000A3FC80464FF6FF7000EA041404EB080056
:1008900084B21B48806940F0040019498861084609
:1008A000806940F4804088611648006820F47F60C9
:1008B000144908600846006840F40B60086010485E
:1008C000C06840F480400E49C8600846C06820F403
:1008D0008040C860084808300480001D008842F24B
:1008E0000C01084304490C310880BDE8F09F00006A
:1008F00006000020004800400038014040420F0040
:100900000010024004080140094880470948004798
:10091000FEE7FEE7FEE7FEE7FEE7FEE7FEE7FEE7AF
:10092000FEE7FEE704480549054A064B704700000C
:100930008F0300083101000870060020700C0020B1
:10094000700800207008002008B50121102002F076
:100950006DFF4FF40050ADF8000010208DF803003B
:1009600003208DF8020069460C4802F03DFC08BDEA
:1009700018B900210A4A11600FE00A490968491CA8
:10098000084A1160814208D105490968C943064AED
:10099000C2F8B4110021034A1160704700100140F1
:1009A000B40122424C000020000022427FB50546DF
:1009B0000C460121C80202F039FFADF80850ADF82D
:1009C00004400020ADF80600ADF80A008DF80C00D8
:1009D00001A90F4803F062F801210D4803F080FEE1
:1009E000012241210A4803F0D0FB19208DF80000B4
:1009F00000208DF801008DF8020001208DF8030021
:100A0000684602F09EF80121014803F0A3FB7FBD78
:100A1000002C014008B50121082002F007FF4FF427
:100A20007040ADF8000010208DF8030003208DF811
:100A3000020069462A4802F0D7FB08BD30B589B0EC
:100A400005460C46FFF7E6FF0121092002F0EEFE05
:100A50000121022002F0F7FE0320ADF8200018204B
:100A60008DF8230003208DF8220008A91C4802F00D
:100A7000BBFBADF81850ADF814400020ADF81600DF
:100A8000ADF81A0005A9174803F008F80020ADF8E2
:100A90000A006020ADF804000120ADF80600002037
:100AA000ADF80C0001A90F4803F0C4F801A90D48E6
:100AB00003F00BF901210B4803F058FB082109480A
:100AC00003F08EFC0821074803F093FC0121054840
:100AD00003F040FC0121034803F03CFB09B030BDAA
:100AE000000C01400004004000B587B00121042043
:100AF00002F09CFE0121084602F098FE0320ADF8AA
:100B00000C0004208DF80F0003A95C4802F06CFB78
:100B100004A803F0EFFA0020ADF810004FF6FF70C4
:100B2000ADF814000020ADF81200ADF8160004A9CD
:100B30004FF0804002F0B2FF00231A4603214FF02D
:100B4000804003F0BAFB684603F0E7FA0A20ADF8EC
:100B500008006946400703F034FA0121880703F0D2
:100B6000BFFD01221146900703F00FFB00214FF05B
:100B7000804003F083FD0121880703F0EBFA07B002
:100B800000BD00B587B00121042002F05CFE012108
:100B9000082002F04BFEC020ADF80C0004208DF8B8
:100BA0000F0003A9364802F01FFB04A803F0A2FAC5
:100BB0004FF6FF70ADF814000020ADF81000ADF84E
:100BC0001200ADF8160004A92E4802F067FF0023BA
:100BD0001A4603212B4803F070FB684603F09DFA88
:100BE0000A20ADF808006946264803F0EAF9012119
:100BF000244803F075FD01221146224803F0C5FA8E
:100C00000021204803F03AFD01211E4803F0A2FA1A
:100C100007B000BD0146022902D0042912D108E024
:100C20004FF08042928C10B200224FF080439A84A1
:100C30000AE04FF08042928C10B200224FF08043C5
:100C40009A8401E0002000BF00BF70470D481030BB
:100C500000880C481030008820F00100094910314C
:100C6000088070474FF08040008A4FF08040008A33
:100C700020F001004FF080410882704700080140D9
:100C8000000C01400008004008B50121042002F0DA
:100C9000CDFD4FF41060ADF8000010208DF803007A
:100CA00003208DF802006946F74802F09DFA08BD5E
:100CB00010B5F548001D006820F00F00F249091D2D
:100CC00008600846006840F0030008600120EF4912
:100CD0000860EF48D0F8200108B9002010BD0120BD
:100CE000EA490C310860FFF7EFFB0020E849C1F842
:100CF000A001E6488038006808B10020EEE7012036
:100D0000FFF7E2FB0020E1490C3108600120E5E734
:100D100010B5DD48001D006820F00F00DA49091DFC
:100D200008600846006840F0030008600020D749CA
:100D30000C310860D649C1F8A0010120FFF7C4FBBF
:100D40000120D2490C310860D149C1F8A001FFF758
:100D5000BBFB10BD10B50024CB48001D006820F07F
:100D60000F00C949091D08600846006840F00800E6
:100D700008600120C5490860FFF7A6FB0120C449AF
:100D8000C1F8AC01FFF7A0FB0AE0601CC4B2322C32
:100D900003DDFFF7BDFF002010BD0120FFF794FB2E
:100DA000BA48803800680028EFD1B8490C31086093
:100DB0000120F1E710B50020B4490C310860B248B9
:100DC000001D006820F00F00AF49091D08600846AB
:100DD000006840F0030008600020AD49C1F8A001A0
:100DE0000120FFF771FB0120A8490C310860FFF7D3
:100DF0006BFB0020A649C1F8AC0110BD10B5002066
:100E0000A2490C310860A048001D006820F00F00C6
:100E10009D49091D08600846006840F0030008600D
:100E200001209B49C1F8A001FFF74EFB0120974923
:100E30000C310860FFF748FB00209549C1F8AC0170
:100E400010BD70B504469048001D006820F00F00EA
:100E50008D49091D08600846006840F003000860DD
:100E600000208A490C310860002516E0E009874916
:100E700008606006040E0120FFF726FB012084496C
:100E8000C1F8AC01FFF720FB002080490C3108605D
:100E90000120FFF719FB681CC5B2082DE6DB70BD09
:100EA0002DE9F04105460E4617469846FFF700FF2C
:100EB00010B90120BDE8F0816906080EFFF7C1FFF7
:100EC000FFF748FF18B9FFF723FF0120F2E730468C
:100ED000FFF7B7FFFFF73EFF00240BE018F8040010
:100EE000FFF7AFFFFFF736FF18B9FFF711FF00203C
:100EF000E0E7641CBC42F1DBFFF70AFF0020D9E702
:100F000070B5054600246048001D006820F00F0001
:100F10005D49091D08600846006840F00800086047
:100F2000002617E0002059490C3108600220FFF725
:100F3000CBFA01205649C1F8AC016006040E5348B3
:100F40008038006808B1601CC4B20220FFF7BCFA08
:100F5000701CC6B2082EE5DB15B1FFF72BFF01E0D0
:100F6000FFF74CFF204670BD2DE9F04106460F46C5
:100F700014461D46FFF79CFE10B90120BDE8F08124
:100F80007106080EFFF75DFFFFF7E4FE18B9FFF7E3
:100F9000BFFE0120F2E73846FFF753FFFFF7DAFE06
:100FA000FFF786FE012101EB4601C8B2FFF749FFBA
:100FB000FFF7D0FE0DE0012C04D10020FFF7A0FFC9
:100FC000287003E00120FFF79BFF28706D1C601E56
:100FD000C4B2002CEFD1FFF79BFE0020CEE770B526
:100FE00005460E460024FFF763FE2846FFF729FF5B
:100FF000641CFFF7AFFE3046FFF723FF641CFFF7CA
:10100000A9FEFFF755FE691CC8B2FFF71AFF641C62
:10101000FFF7A0FE0020FFF773FF0446FFF778FEFE
:10102000204670BD2DE9F0410746884615461E460C
:101030000024FFF73DFE3846FFF703FFFFF78AFE67
:101040004046FFF7FEFEFFF785FEFFF731FE791CF5
:10105000C8B2FFF7F6FEFFF77DFE00BF0DE0681E89
:10106000A04204D00120FFF74BFF305503E00020E1
:10107000FFF746FF3055601CC4B2AC42EFDBFFF710
:1010800047FE2046BDE8F08100080140A001214252
:10109000000021422DE9F04180460D4616461F46CC
:1010A0000024FFF705FE4046FFF7CBFEFFF752FE98
:1010B0002846FFF7C6FEFFF74DFE00BF06E0385D8D
:1010C000FFF7BFFEFFF746FE601CC4B2B442F6DB7A
:1010D000FFF71EFE0120BDE8F08170B505460E4603
:1010E000144631462846FFF77AFF2070012070BD74
:1010F00037B504460D4602AB012229462046FFF7CC
:10110000C9FF3EBD2DE9F8430746884614461D46F3
:10111000089E6A4641463846FFF7DFFF28B3601C49
:10112000FF2101FA00F0C4F108012944491EFF2201
:101130000A41104300F0FF09C5F1080006FA00F06B
:10114000C6B2C4F1070006419DF8000000EA09009C
:1011500000909DF80000304300909DF8002041462B
:101160003846FFF7C5FFBDE8F8830020FBE7F8B578
:1011700006460F4614461D466A4639463046FFF776
:10118000ACFF2DB10120A0409DF80010084305E000
:101190000120A0409DF8001021EA0000C0B200909C
:1011A0009DF8002039463046FFF7A2FFF8BD000049
:1011B00010B50A461AB10123FE4C236002E0002359
:1011C000FC4C2360002114E00023FB4C236000F062
:1011D00080031BB10123241F236003E00023F64C8E
:1011E000241F23600123F44C23604306180E4B1C7C
:1011F000D9B20829E8DB0123EE4C236010BD30B5DD
:1012000000241CE004F1B001C8B20021FFF7D0FFB8
:1012100000210846FFF7CCFF00211020FFF7C8FF90
:10122000002508E0E54901EBC501085D0121FFF754
:10123000BFFF681CC5B2802DF4DB601CC4B2082C53
:10124000E0DB30BD00B500218D20FFF7B1FF0021AC
:101250001420FFF7ADFF0021AF20FFF7A9FF00BD6D
:1012600000B500218D20FFF7A3FF00211020FFF71C
:101270009FFF0021AE20FFF79BFF00BD30B500248B
:101280000CE0002506E00020CC4901EBC501085523
:10129000681CC5B2802DF6DB601CC4B2082CF0DBE4
:1012A000FFF7ADFF30BDF0B5144600267F2801DC06
:1012B0003F2900DDF0BD0B46CF1701EB5777FF103C
:1012C000C7F10707FAB2CF1701EB5777FF10A1EB71
:1012D000C707FDB2C5F107070123BB40DEB24CB121
:1012E000B64B03EBC0039B5C3343B44F07EBC00723
:1012F000BB5408E0B14B03EBC0039B5CB343AF4F5F
:1013000007EBC007BB5400BFD4E72DE9F04F804680
:101310000C4615461E46A346A5F12000C5B200277F
:101320003EE00C2E07D105EB4500A54901EB8000FE
:1013300010F8079004E0A34800EB051010F80790A0
:101340004FF0000A26E009F0800028B1214640460F
:10135000099AFFF7A8FF09E0099808B9012000E001
:101360000020024621464046FFF79DFF4FEA4960B4
:101370004FEA1069601CC4B2A4EB0B00B04205D167
:101380005C4608F1010000F0FF0806E00AF10100E8
:1013900000F0FF0ABAF1080FD5DB00BF781CC7B216
:1013A000B742BEDBBDE8F08F10B50246012000E079
:1013B00050430B1EA1F10104E1B2F9D110BD2DE99A
:1013C000FF4F81B0074691461E460E9D4FF0000A22
:1013D000002439E0301B401EC1B20A20FFF7E4FFB1
:1013E000B9FBF0F00A21B0FBF1F201FB1208BAF1EF
:1013F000000F16D1701EA04213DDB8F1000F0ED100
:101400000120AB4605EBDB71491001FB0471009034
:10141000C8B22B4620220299FFF777FF12E04FF067
:10142000010A0120AB4605EBDB71491001FB047199
:101430000090C8B208F13001CAB22B460299FFF7FA
:1014400064FF00BF601CC4B2B442C3DB05B0BDE89A
:10145000F08F78B505460E46144618E07A2D03DD68
:10146000002506F11000C6B23A2E04DD0020054624
:101470000646FFF703FF0120009022780C23314637
:101480002846FFF742FF05F10800C5B2641C20782A
:101490000028E3D178BD08B50121082002F0C6F983
:1014A0004FF40070ADF8000010208DF8030002200A
:1014B0008DF802006946444801F096FE0121112092
:1014C00002F0B4F94FF46040ADF8000002208DF84E
:1014D000020010208DF8030069463C4801F084FEAC
:1014E000012001F0DAFF002002F00DF9002001F0E8
:1014F000C4FD002001F0D1FF00202F490839086009
:101500006420FEF7FDFF01203149C1F8B40100213C
:10151000AE20FFF74DFE0021D520FFF749FE002148
:101520005020FFF745FE0021A820FFF741FE0021D3
:101530003F20FFF73DFE0021D320FFF739FE0021B9
:101540000846FFF735FE00214020FFF731FE00215D
:101550008D20FFF72DFE00211420FFF729FE00212A
:101560002020FFF725FE00210220FFF721FE0021A9
:10157000A120FFF71DFE0021C020FFF719FE00216A
:10158000DA20FFF715FE00211220FFF711FE0021DF
:101590008120FFF70DFE0021EF20FFF709FE00215B
:1015A000D920FFF705FE0021F120FFF701FE002101
:1015B000DB200FE0A4812142BC0122425C0100201B
:1015C000B2960008269B0008000C01400010014064
:1015D00000002242FFF7ECFD00213020FFF7E8FD7C
:1015E0000021A420FFF7E4FD0021A620FFF7E0FD85
:1015F0000021AF20FFF7DCFDFFF740FE08BD000033
:1016000010B586B004460121880402F01CF90121BE
:10161000082002F00BF918208DF817004FF48060B5
:10162000ADF8140003208DF8160005A9454801F017
:10163000DBFD04208DF817004002ADF8140005A969
:10164000404801F0D1FD27208DF8000003208DF8DF
:1016500001008DF8020001208DF80300684601F0BA
:1016600070FA01940020ADF80800ADF80A00ADF85A
:101670000C00ADF810000C20ADF80E0001A93248A6
:1016800003F089F8012240F225512F4803F01BF99D
:1016900001212D4803F00BF906B010BD10B540F242
:1016A0002551294803F0F4F9002849D02648001DA7
:1016B00000882649087008460078412806D042284C
:1016C0000FD0432819D044282ED122E001202049F0
:1016D000087000201F4908701F4908701F490870D2
:1016E0002DE000201A49087001201A4908700020D6
:1016F000194908701949087021E000201449087040
:10170000144908700120144908700020134908701A
:1017100015E000200E4908700E4908700E49087047
:1017200001200E4908700AE00020094908700949A3
:1017300008700949087001200849087000BF00BFFF
:1017400010BD0000000C0140004800405100002086
:101750000000002001000020020000200300002003
:10176000014691F90020002A01DD00201EE091F9D8
:101770000020002A01DA042018E091F90120002A53
:1017800001DD012012E091F90120002A01DA052093
:101790000CE091F90220002A01DD022006E091F917
:1017A0000220002A01DA062000E00720704770B509
:1017B00005462846FFF7D4FF0446E81CFFF7D0FF94
:1017C00044EAC00084B2A81DFFF7CAFF44EA8010B3
:1017D00084B2204670BD70B588B002A905A804F097
:1017E0006EFE0446072C3FD101A804F0DDF80598F1
:1017F00007F00AFD0646019907F066FD054607F069
:10180000C7FC0590069807F0FFFC0646019907F013
:101810005BFD054607F0BCFC0690079807F0F4FC5A
:101820000646019907F050FD054607F0B1FC079008
:1018300005A805F054F9684604F0D3F8BDF8001087
:10184000029848430290BDF8001003984843039063
:10185000BDF8001004984843049002A805F0D2F99E
:10186000FEA005F07FFF00BF08B070BD2DE9F0437A
:1018700004460D46DDE907670021012041E0DFF85D
:1018800000C43CF81080A0F1010CDFF8F49329F8B3
:101890001C8009F1160C3CF81090A0F1010CDFF847
:1018A000E08308F1160828F81C9008F1160C3CF8A3
:1018B0001090A0F1010C08F1160828F81C9008F10E
:1018C000160C3CF81090A0F1010C08F1160828F84D
:1018D0001C9008F1160C3CF81090A0F1010C08F1D6
:1018E000160828F81C9008F1160C3CF81090A0F18E
:1018F000010C08F1160828F81C9000F1010C0CF0FE
:10190000FF000A28BBDBDFF878C3ACF81240ACF864
:101910002850ACF83E20ACF85430ACF86A60ACF813
:1019200080700021002008E0DFF854C33CF910C0AB
:10193000614400F1010C0CF0FF000A28F4DB4FF0C9
:101940000A0C91FBFCFC0FFA8CFCDFF83483A8F83E
:1019500014C0002100200AE0DFF824C30CF1160CAB
:101960003CF910C0614400F1010C0CF0FF000A28A2
:10197000F2DB4FF00A0C91FBFCFC0FFA8CF8DFF85D
:1019800000C3ACF82A80002100200AE0DFF8F0C292
:101990000CF12C0C3CF910C0614400F1010C0CF06E
:1019A000FF000A28F2DB4FF00A0C91FBFCFC0FFA57
:1019B0008CF8DFF8CCC2ACF84080002100200AE0AF
:1019C000DFF8BCC20CF1420C3CF910C0614400F1DC
:1019D000010C0CF0FF000A28F2DB4FF00A0C91FB1F
:1019E000FCFC0FFA8CF8DFF898C2ACF856800021A6
:1019F00000200AE0DFF888C20CF1580C3CF910C056
:101A0000614400F1010C0CF0FF000A28F2DB4FF0FA
:101A10000A0C91FBFCFC0FFA8CF8DFF864C2ACF8FE
:101A20006C80002100200AE0DFF854C20CF16E0C3B
:101A30003CF910C0614400F1010C0CF0FF000A28D1
:101A4000F2DB4FF00A0C91FBFCFC0FFA8CF8DFF88C
:101A500030C2ACF88280BDE8F08338B50446032379
:101A600002226B21D0200094FFF74CFB38BD38B523
:101A70000446022304221B21D0200094FFF742FBDE
:101A800038BD38B50446022304221C21D02000941E
:101A9000FFF738FB38BD10B50446234606226B21FC
:101AA000D020FFF764FB10BD10B5764B01227521E5
:101AB000D020FFF7B7FA7348007810BD10B5FFF7D4
:101AC000F3FF682801D1012010BD0020FCE710B50C
:101AD0000446234605226A21D020FFF748FB10BDAB
:101AE00010B50446234601223721D020FFF73FFBE3
:101AF00010BD10B50220FFF7B0FF0320FFF7B7FFBE
:101B00000020FFF7BEFF0020FFF7C5FF0020FFF712
:101B1000DEFF0020FFF7E4FF10BD38B50020009085
:101B20006B46012275216820FFF71EFA56A005F0CA
:101B300019FE9DF8000068280ED000BF5B480068C1
:101B400000F4E0605A490843001D58490860BFF39B
:101B50004F8F00BF00BFFEE703F033FC00283CD1ED
:101B6000782003F096F810B947A005F0FBFD782027
:101B700003F076FA10B94FA005F0F4FDC82003F089
:101B800050FB10B955A005F0EDFD04F00DFF10B9A4
:101B90005CA005F0E7FD6848FFF709FE044604F085
:101BA0000DFF10B965A005F0DDFD40F2731005F0E2
:101BB00046FB10B96BA005F0D5FDC82005F0B8F8BC
:101BC00010B972A005F0CEFDFFF705FE012004F06C
:101BD00031FC10B976A005F0C5FD38BD2DE9F04FF8
:101BE00089B007A87B4908AB03AACDE900107A4960
:101BF0007A4805F083FC7748008800F4807000285C
:101C00002AD0039807F000FB04464FF09D4107F0EF
:101C1000C9F973490860049807F0F6FA04464FF0D2
:101C20009D4107F0BFF96F490860059807F0ECFA8D
:101C300004464FF09D4107F0B5F96B4908600698DE
:101C400007F0E2FA04464FF09D4107F0ABF967490F
:101C5000086063480168CBE0F6E0000073657474C7
:101C6000696E67206269617320737563636573666B
:101C7000756C6C79202E2E2E2E2E2E0D0A00000053
:101C80006A0500205C0500206D70755F7365745FE8
:101C900073656E736F7220636F6D706C6574652011
:101CA0002E2E2E2E2E2E0D0A000000000CED00E030
:101CB0000000FA056D70755F636F6E666967757217
:101CC000655F6669666F20636F6D706C6574652013
:101CD0002E2E2E2E2E2E0D0A000000006D70755F28
:101CE0007365745F73616D706C655F72617465209C
:101CF000636F6D706C657465202E2E2E2E2E2E0D4A
:101D00000A000000646D705F6C6F61645F6D6F74DA
:101D1000696F6E5F6472697665725F6669726D770E
:101D200061726520636F6D706C657465202E2E2E58
:101D30002E2E2E0D0A00000078000020646D705FCA
:101D40007365745F6F7269656E746174696F6E201C
:101D5000636F6D706C657465202E2E2E2E2E2E0DE9
:101D60000A000000646D705F656E61626C655F669D
:101D700065617475726520636F6D706C6574652044
:101D80002E2E2E2E2E2E0D0A00000000646D705F88
:101D90007365745F6669666F5F7261746520636FF7
:101DA0006D706C657465202E2E2E2E2E2E0D0A0061
:101DB0006D70755F7365745F646D705F737461746B
:101DC0006520636F6D706C657465202E2E2E2E2E2F
:101DD0002E0D0A00600000205A0000205400002050
:101DE000680000206C0000207000002074000020BB
:101DF0004FF0804007F068FA019030480168019880
:101E000007F062FA02902E4801684FF0404007F058
:101E10005BFA01902B480168019807F055FA834658
:101E2000029907F051F8824607F022F8064605F0BD
:101E300053FF04464FF06632234B06F03FFD8046C9
:101E400006F078FA2149086009B0BDE8F08F2DE965
:101E5000F05F4221D020FFF7C2F805464121D02093
:101E6000FFF7BDF805EB0024204607F0CDF98246C8
:101E70004FF08E41504607F0F3FA05D24FF08F41F4
:101E8000504607F029FB82461149504607F08AF870
:101E9000834606F0EDFF80460E4A0F4B06F07CFAB3
:101EA000064600220D4B06F009FD044606F042FAF4
:101EB0008246504607F06CF9BDE8F09F70000020A4
:101EC0006C0000207400002066A64C4064000020D6
:101ED0000000AA43A4703D0AD743424000002440BA
:101EE00000B587B001214FF4017001F09FFC4FF461
:101EF000004001F0FFFB1020ADF8040000208DF839
:101F0000070001A9364801F06FF9364800F082FE5B
:101F1000002002908DF80C008DF80D004FF4602029
:101F200004900020059001208DF8180002A92D488A
:101F300000F097FE01212B4800F0BFFE294800F079
:101F4000DEFE00BF274800F0DFFE0028FAD125485A
:101F500000F0E4FE00BF234800F0E5FE0028FAD1BF
:101F600007B000BD10B504460723012221461D48D5
:101F700000F00FFF01211B4800F0DFFE00BF02212F
:101F8000184801F04BF80028F9D0164800F068FF17
:101F900010BD2DE9F04F85B00420FFF7E3FF01905D
:101FA00006F03DFC4FF066320F4BCDE9020106F022
:101FB00085FC804600220D4B06F080FC0646002280
:101FC0000B4B06F07BFC044600220A4B06F0A0FAFD
:101FD000824606F0F5FB0490049805B0BDE8F08F4A
:101FE000000801400024014066660A4000001940D4
:101FF000000059400000B04038B5FFF723F95EA259
:1020000000210846FFF725FA5EA219210020FFF7FC
:1020100020FA5E48006800280FDA5DA219212D2001
:10202000FFF717FA0C200523009058480068424239
:1020300019214120FFF7C3F90DE056A219212D20E7
:10204000FFF707FA0C200523009050481921026879
:102050004120FFF7B4F950A223210020FFF7F9F93E
:102060004F48006800280FDA49A223212D20FFF7EE
:10207000F0F90C20052300904948006842422321D2
:102080004120FFF79CF90DE042A223212D20FFF70C
:10209000E0F90C20052300904148232102684120EB
:1020A000FFF78DF93FA22D210020FFF7D2F93FA2C3
:1020B0002D213A20FFF7CDF93DA22D215020FFF729
:1020C000C8F93C480068642190FBF1F40C2002231D
:1020D00022462D2100900846FFF771F93548006827
:1020E000642190FBF1F201FB12040C200223224632
:1020F0002D2100904420FFF762F92E4800680A2144
:1021000090FBF1F201FB12000A2807DA0C200223EF
:1021100000222D2100903E20FFF751F926A20F2129
:102120000020FFF796F900212548006807F098F88D
:1021300011D224492248006806F0C6FE054607F081
:1021400043F804461020032322460F21009032203A
:10215000FFF735F90CE01A48006807F035F8044637
:102160001020032322460F2100903220FFF727F989
:10217000FFF745F838BD00006D6164652062792085
:102180007A770000456E636F313A00000800002046
:102190002D0000002B000000456E636F323A0000F6
:1021A0000C000020566F6C74610000002E000000CF
:1021B000560000001C000020416E676C653A00006C
:1021C000200000200000B4430146002901DA484203
:1021D00000E00846704700B503460A46002B07DDBD
:1021E0000120FE4908600020FD49C1F8B80106E061
:1021F0000020FA4908600120F949C1F8B8011846E1
:10220000FFF7E2FFF7490880002A08DD0020F349C4
:102210000C3908600120F249C1F8B40107E001203F
:10222000EE490C3908600020ED49C1F8B4011046B0
:10223000FFF7CAFFEB49091F088000BD70B50546CE
:10224000E949284607F00CF808D3E849284607F082
:1022500007F903D3E648007801280ED101240020B5
:10226000DE49091F0860DE49C1F8BC01DB490C39B1
:102270000860DB49C1F8B40100E000240020DC491B
:102280000870204670BD41F6BC30DA490968424208
:10229000914202DA4142D74A1160D6490968814227
:1022A00001DDD4490860D44909684242914202DA0A
:1022B0004142D14A1160D0490968814201DDCD49CE
:1022C000086070472DE9F84F05460E469146CB4809
:1022D0000078962191FBF0F7384606F095FF04460A
:1022E000DFF81CA34FF0000BC6480078012803D08C
:1022F000C5480078012834D14FF07E51C3480068AA
:1023000006F0E2FDC149074608604FF07E5106F035
:102310000BFF07D1A819FFF757FF074606F074FF18
:10232000BB490860BA480168BA4806F03BFEBA49A2
:1023300008600846006806F09BFD07464FF0333200
:10234000B64B06F07FFA02D2B548B3490860B549EA
:10235000B148006807F084F80BD2B248AE49086073
:1023600007E0B148AC4908600020A8490860A849C6
:102370000860A4480078012808D1A7480168AB4844
:10238000006807F0A9F8A94908600FE09E480078A6
:10239000012808D1A0480168A448006806F094FD0F
:1023A000A249086002E00020A049086021469F4839
:1023B000006807F055F801D29C48046084F000479B
:1023C0009A480168384607F04BF803D284F0004081
:1023D0009649086096480078012803D0954800780F
:1023E000012802D14FF07E5B01E04FF0000B59460F
:1023F000484606F069FF00908C48006880F000486D
:102400005146404606F060FF0746009907F064F821
:10241000894908600846006806F0BAFEBDE8F88FF2
:102420002DE9FC5F85480190854800908048007840
:1024300001280BD1714800784FF4967191FBF0F4AC
:10244000204606F0E1FE7F49086012E079480078F6
:1024500001280BD1694800786FF0F90191FBF0F485
:10246000204606F0D1FE7749086002E00020754959
:10247000086075490968754A12681144084606F0F3
:10248000C3FE734908607348006806F0F1FC064615
:10249000714A724B06F012FA04460D466C48006809
:1024A00006F0E6FC06466E4A6E4B06F007FA8046DA
:1024B00022462B4605F070FF824605F03BFF6A4935
:1024C0000860084601686948006806F0FDFC674935
:1024D00008605C4801686548006806F0FDFF6349D4
:1024E000086063496148006806F0BAFF02D260489C
:1024F0005E4908605F495D48006806F0B1FE02D29F
:102500005C485A49086059480099006806F0DCFEAA
:10251000044655480199006806F0D6FE0546214656
:1025200006F0D2FC544908604F48006849490860E9
:1025300052480068FFF782FE012803D02C4800783B
:10254000012802D10020494908604B48006806F084
:102550001FFEBDE8FC9F2DE9F84F05460C46484E8E
:102560004FF07F574FF07E51284606F0B5FF0090A0
:102570003946204606F0A8FE82463046009906F00D
:10258000A3FE8346514606F09FFC814606F000FEFE
:1025900080464046BDE8F88F2DE9F04F87B04621D0
:1025A000D020FEF71CFD80464521D020FEF717FD08
:1025B00008EB0027384606F027FE04464821D020C5
:1025C000FEF70DFD80464721D020FEF708FD08EB01
:1025D0000027384606F018FE814653E0BC812142B0
:1025E0000080214240040040000020C20000204240
:1025F000050000201000002014000020040000202E
:10260000000028420200002003000020C400002037
:10261000BC00002000004842C00000203333E33FEC
:102620009A99193F000040406666663FB40000205A
:102630000000002001000020B80000200000F0C2CF
:102640009A9919BFA8000020080000200C00002063
:10265000A0000020B0000020CDCCCCCCCCCCEC3FF6
:102660009A9999999999B93FA4000020AC0000204B
:1026700000401C4600401CC69C000020200000209A
:10268000008009443C21D020FEF7A9FC80463B2174
:10269000D020FEF7A4FC08EB0027384606F0B4FD76
:1026A00006904021D020FEF79AFC80463F21D020A2
:1026B000FEF795FC08EB0027384606F0A5FD064618
:1026C0004FF08E41204606F0CBFE05D24FF08F41F1
:1026D000204606F001FF04464FF08E41484606F0C2
:1026E000BFFE05D24FF08F41484606F0F5FE814609
:1026F0004FF08E41069806F0B3FE05D24FF08F41A1
:10270000069806F0E9FE06904FF08E41304606F03E
:10271000A7FE05D24FF08F41304606F0DDFE06469B
:1027200084F0004053490860304606F0A1FB07469C
:102730008846069806F09CFB82463A46434605F0DA
:1027400013FD00224C4BCDE9000106F0B7F84B4ACF
:102750004B4BCDE9020105F0DBFECDE9040105F0AC
:10276000E9FD0546204606F083FB82464FF06632BF
:10277000444B05F0CDFE074605F0DCFD044684F031
:1027800000473946284600F09BF83F4800683F491B
:1027900008603F48C0F800903E48066007B0BDE8BA
:1027A000F08F10B501213C4801F09DFF00285FD05B
:1027B0000121394801F0A8FF3848007808B9012004
:1027C00000E000203549087008460078012803D150
:1027D000FFF7E2FE002010BD0220FEF71BFA404288
:1027E0002F4908600420FEF715FA2E490860FFF70C
:1027F000D3FEFFF7CEFB2C4908601E480168234832
:102800000068FFF7A8FE29490860264801682448A7
:102810000068FFF705FE264908601D480268214848
:1028200001681F480068FFF74DFD224908601F48F6
:1028300000681F490968401A1E490968401A1E4964
:1028400008601A4800681A490968401A1949096855
:1028500008441A490860FFF716FD0C480068FFF7A6
:10286000EDFC28B91548016813480068FFF7B3FC70
:102870000020B0E72400002000806640F1D4C85357
:10288000FB21094066663040CC000020200000207B
:10289000280000208C000020002C0140880000202F
:1028A000080000200C0000201C00002090000020E8
:1028B0009400002098000020100000201400002048
:1028C0002DE9F04105460C4689480168204606F08E
:1028D00003FE074687480168384606F0F5FC0646C1
:1028E00085480168304606F0EFFA8349086083485E
:1028F00041688348006806F0EFFD06467F4881681E
:10290000304606F0E9FD7F4908607C48C06880F0E9
:10291000004048607948C06880F0004088607A488C
:102920000068C86008687349096806F0CDFC06466F
:1029300072480168304606F0C7FA7049086071496C
:1029400048686C49096806F0BFFC06466B48416858
:10295000304606F0B9FA694948606A4988686549AD
:10296000096806F0B1FC064664488168304606F006
:10297000ABFA624988606349C8685E49096806F035
:10298000A3FC06465D48C168304606F09DFA5B49E7
:10299000C86059480168284606F09EFD5B490860FA
:1029A0005B48007806F048FC06465448016830460B
:1029B00006F08AFC574908605548007806F03CFC50
:1029C00006464E488168304606F07EFC5249086053
:1029D0004F48007806F030FC07464E4801683846FC
:1029E00006F072FC06464D480168304606F06CFA67
:1029F0004B490860084601684648006806F0D2FA6C
:102A000048490860464801684348006806F0CAFA29
:102A1000454908603F480068444908603C480078E0
:102A200006F00AFC064635484168304606F04CFC84
:102A30003F4908603D4801683A48006806F044FC98
:102A400006462E480168304606F03BFD2B490860DB
:102A5000374801683348006806F036FC06462748C8
:102A60004168304606F02DFD244948602F48016832
:102A70002D48006806F028FC06462048816830464C
:102A800006F01FFD1D498860294801682648006836
:102A900006F01AFC06461948C168304606F011FDDA
:102AA0001649C860194801681E48006806F00CFC09
:102AB000064611480168304606F006FA0E490860DD
:102AC000124801681848006806F0FEFB06460848F0
:102AD0000168304606F0F8F90549086008460168C3
:102AE000204606F0F9FC13490860BDE8F0810000BB
:102AF000E8000020E0000020CC0000200C010020B5
:102B0000D4000020F0050020D8000020EC000020B8
:102B1000E4000020F0000020F4000020DC00002091
:102B2000F8000020FC00002000010020040100202B
:102B300008010020D000002031490143314A1160D2
:102B4000704770B5002100230F22C47804B32D4CC8
:102B5000246804F4E064C4F5E064210AC1F10403CC
:102B6000CA40447804FA03F18478144021430901EF
:102B7000254C0678A155047804F01F050124AC40CB
:102B800005786D11AD0005F1E025C5F8004109E0BB
:102B9000047804F01F050124AC401C4D0678761122
:102BA00045F8264070BD1A4A0A400243154B1B1FC8
:102BB0001A60704739B1134A121D12680243114B53
:102BC0001B1D1A6006E00F4A121D126882430D4B4E
:102BD0001B1D1A607047042808D14FF0E0210969D5
:102BE00041F004014FF0E022116107E04FF0E021D5
:102BF000096921F004014FF0E022116170470000E3
:102C00000000FA050CED00E000E400E080E100E0E7
:102C100080FFFF1F10B50446FA48844208D1012105
:102C2000401500F01DFE0021601500F019FE17E0B0
:102C3000F548844208D10121001500F011FE002161
:102C4000201500F00DFE0BE0F048844208D1012170
:102C5000C80300F005FE00214FF4004000F000FE24
:102C600010BD30B50246002000235068E84C2040DB
:102C70000D790C6844EA0524204350609068E54CC7
:102C80002040D1E902542C434D7944EA45042043C5
:102C90009060D06A20F470000C7C641EE4B2234380
:102CA00040EA0350D06230BD0021016001714171E2
:102CB0008160C16001210174704721B1826842F0D6
:102CC0000102826003E0826822F0010282607047A4
:102CD00021B1826842F48072826003E0826822F44B
:102CE00080728260704710B50023CBB21AB144687D
:102CF0001C43446002E044689C43446010BD81680A
:102D000041F0080181607047014600208A6802F0A6
:102D100008020AB1012000E000207047816841F0FC
:102D2000040181607047014600208A6802F00402B5
:102D30000AB1012000E00020704721B1826842F40E
:102D4000A002826003E0826822F4A00282607047E1
:102D5000014600208A6802F480020AB1012000E0E6
:102D60000020704710B50A4600210023416821F475
:102D70006041531E41EA4331416010BD21B14268B8
:102D800042F40062426003E0426822F40062426062
:102D90007047F0B504460D4600200021092D11DDD5
:102DA000E068A5F10A0606EB4607072606FA07F1D2
:102DB0008843A5F10A0606EB460603FA06F1084326
:102DC000E0600CE0206905EB4507072606FA07F1ED
:102DD000884305EB450603FA06F108432061072AFC
:102DE0000FDA606B561E06EB86071F2606FA07F100
:102DF0008843561E06EB860605FA06F10843606313
:102E000022E00D2A0FDA206BD61F06EB86071F265D
:102E100006FA07F18843D61F06EB860605FA06F187
:102E20000843206310E0E06AA2F10D0606EB860776
:102E30001F2606FA07F18843A2F10D0606EB860667
:102E400005FA06F10843E062F0BD21B1826842F460
:102E50008012826003E0826822F4801282607047F0
:102E60000146C86C80B2704766484C3000687047B5
:102E700021B1426842F48062426003E0426822F479
:102E800080624260704721B1426842F480524260E1
:102E900003E0426822F48052426070470A460021F3
:102EA000816821F4E04111438160704721B182685B
:102EB00042F40042826003E0826822F400428260B1
:102EC000704721B1826842F40212826003E0826896
:102ED00022F4021282607047014600208A6802F4E0
:102EE00000120AB1012000E000207047F0B504464E
:102EF0001546002000220026092911DDE068A1F115
:102F00000A0707EB470C072707FA0CF29043A1F1D9
:102F10000A0707EB470703FA07F21043E0600CE0EB
:102F2000206901EB410C072707FA0CF2904301EBF3
:102F3000410703FA07F210432061A06BC0F301566A
:102F4000EF1C06F1010CA7EB0C0707EB870C1F2702
:102F500007FA0CF29043EF1C06F1010CA7EB0C07EB
:102F600007EB870701FA07F21043A063F0BD10B525
:102F70000A4600210023816B21F44011531E41EACF
:102F80000351816310BD08B5002300930090009B9E
:102F90000B440093009B1A6008BD08B50246002050
:102FA0000090009201F12800009B184400900098C6
:102FB000006880B208BD0A4600214168164B1940DE
:102FC0001143416070474162826270470A460021A6
:102FD000416821F01F0111434160704740B1094928
:102FE0000831096841F40001064A0832116007E01F
:102FF00004490831096821F40001024A08321160CD
:10300000704700000024014000280140003C0140BE
:10301000FFFEF0FFFDF7F1FFFFFD3FFF024600203E
:1030200013680B400BB1012000E000207047CA4339
:103030000260704770B502460020002300240B1286
:103040005568CEB205EA060415681D4015B10CB1ED
:10305000012000E0002070BD00220A12D34303606B
:103060007047000010B5012000F014FC002000F0B3
:1030700011FC10BD2A49086070472949091F0860E2
:103080007047274984310860704701460020254A6F
:1030900010884FF67F4210400843224A1080704744
:1030A000014600201F4A10884FF6807210400843E6
:1030B0001C4A1080704708B500220092194A2C3A29
:1030C0000092009A02440092009A116008BD08B56F
:1030D00001460020009013482C38009000980844C6
:1030E00000900098008808BD0D489C300068C0B270
:1030F00070470C480830008840F001000949083149
:10310000088070470648A0300068C0B27047054884
:103110000830008840F002000249083108807047FA
:1031200004860D422C6C004010B50446CC48844205
:1031300008D10121042000F093FB0021042000F0BD
:103140008FFB46E0C748844208D10121082000F0E7
:1031500087FB0021082000F083FB3AE0C24884424C
:1031600008D10121102000F07BFB0021102000F08D
:1031700077FB2EE0BD48844208D10121202000F0D9
:103180006FFB0021202000F06BFB22E0B848844256
:1031900008D10121402000F063FB0021402000F015
:1031A0005FFB16E0B348844208D10121802000F083
:1031B00057FB0021802000F053FB0AE0AE48844218
:1031C00007D10121801500F04BFB0021A01500F074
:1031D00047FB10BD10B50121084600F041FB00215E
:1031E000012000F03DFB10BD2DE9F0410246002515
:1031F0000026002000230024002791F803C00CF0D3
:103200000F0591F803C00CF0100CBCF1000F03D0B7
:1032100091F802C04CEA050591F800C0BCF1000F1E
:1032200031D0146800202BE04FF0010C0CFA00F3B1
:10323000B1F800C00CEA03069E4220D183004FF093
:103240000F0C0CFA03F7BC4305FA03FC4CEA040428
:1032500091F803C0BCF1280F06D14FF0010C0CFA15
:1032600000FCC2F814C00AE091F803C0BCF1480F9A
:1032700005D14FF0010C0CFA00FCC2F810C0401C44
:103280000828D1D31460B1F800C0BCF1FF0F34DDC1
:10329000546800202EE000F1080C4FF0010808FAF5
:1032A0000CF3B1F800C00CEA03069E4221D1830062
:1032B0004FF00F0C0CFA03F7BC4305FA03FC4CEA81
:1032C000040491F803C0BCF1280F05D100F1080CEB
:1032D00008FA0CF8C2F8148091F803C0BCF1480F4A
:1032E00007D100F1080C4FF0010808FA0CF8C2F8F9
:1032F0001080401C0828CED35460BDE8F0814FF602
:10330000FF710180022181700421C1707047024663
:10331000002093680B400BB1012000E000207047B3
:103320000146886880B2704702460020D3680B408F
:103330000BB1012000E0002070470146C86880B250
:10334000704701617047416170470AB1016100E057
:1033500041617047C16070474FF480320A43826117
:103360008161826182698269704702460020434B15
:1033700018684FF68073184040EA021008433F4B2C
:10338000186070473E49C8617047F0B50A4600238F
:1033900000240021002500F00046B6F1004F02D1C4
:1033A000364EF16901E0354E7168C0F3034583B2D2
:1033B00000F44016B6F5401F08D121F070612F4E81
:1033C000766826F070662D4F7E6012E000F480165D
:1033D000B6F5801F06D1032606FA05F4A14341F095
:1033E000706106E0460D360103FA06F6B14341F07E
:1033F000706122B1460D360103FA06F6314300F042
:103400000046B6F1004F02D11C4EF16101E01B4EA7
:103410007160F0BD30B500228B071C0F0F2303FA3B
:1034200004F2164B08338C1053F824309343134C9A
:1034300008348D1044F8253023468C1053F824307E
:103440008C07240F00FA04F423430C4C08348D102D
:1034500044F8253030BD0A49DC310860704700006F
:1034600000080140000C0140001001400014014020
:1034700000180140001C01400020014000000140F4
:103480000000204210B50121080700F0F6F90021E4
:103490004FF0805000F0F1F910BD2A4908627047E2
:1034A00028490861704701460020274A106820F02B
:1034B000E0000843106070472249A031086070475F
:1034C00010B502460020204B186820F0030010437E
:1034D00018601E4B1B6843F004031C4C2360012939
:1034E00001D130BF00E020BF184B1B6823F004035C
:1034F000164C236010BD1448006840F004001249C7
:1035000008600846006840F0020008600F48006844
:1035100040F004000D49086000BF00BF30BF704795
:1035200001460020084A52680A400AB1012000E022
:10353000002070470449096841EA8001024A11608D
:103540007047000000000E420070004010ED00E0E7
:10355000DF48006840F00100DD4908600846406827
:10356000DC490840DA49486008460068DA49084002
:10357000D74908600846006820F4802008600846A3
:10358000406820F4FE0048604FF41F0088607047D8
:10359000CF49096821F48031CD4A1160114609688C
:1035A00021F480211160B0F5803F03D0B0F5802F69
:1035B0000ED106E0C649096841F48031C44A116061
:1035C00007E0C349096841F4A021C14A116000E045
:1035D00000BF00BF704710B5014600220023002045
:1035E0004A11012A02D1BA4C236806E0022A02D10C
:1035F000B74C236A01E0B64C636A01F01F02012454
:1036000094401C400CB1012000E0002010BD38B5F2
:10361000002000900024002500BF3120FFF7DBFFD1
:1036200005460098401C00900098B0F5A06F01D0AE
:10363000002DF2D03120FFF7CEFF08B1012400E0C9
:103640000024204638BD01460020A14A106820F021
:10365000F80040EAC10010607047A0490860704758
:10366000024600209A4B586820F47C1042EA01037D
:103670001843974B58607047984908667047014651
:103680000020934A506820F00300084350607047C0
:103690008F48406800F00C007047014600208C4ABB
:1036A000506820F0F0000843506070470146002049
:1036B000874A506820F4E060084350607047014634
:1036C0000020834A506820F4605040EAC1005060F6
:1036D000704729B17E4A527A02437D4B5A7204E008
:1036E0007B4A527A82437A4B5A7270477B49D8316F
:1036F0000860704701460020754A506820F4404039
:103700000843506070470021714A20321170704A9E
:1037100082F82010012802D004280AD104E00121F7
:103720006B4A2032117005E00521694A2032117080
:1037300000E000BF00BF70476949086070476449F6
:10374000096A0143624A1162704765494439086059
:10375000704730B500210022002400235C4D6D68C5
:1037600005F00C0121B1042905D0082923D105E079
:103770005C4D056022E05B4D05601FE0544D6D68B7
:1037800005F47012524D6D6805F48034022505EB86
:1037900092421CB9544D554305600BE04C4D6D6889
:1037A00005F400351DB1504D5543056002E04D4D07
:1037B0005543056002E04B4D056000BF00BF444D1E
:1037C0006D6805F0F0010909484D6B5C0568DD4046
:1037D00045603F4D6D6805F4E061090A434D6B5C3F
:1037E0004568DD4085603A4D6D6805F46051C90A51
:1037F0003E4D6B5C4568DD40C560354D6D6805F438
:103800004041890B3A4D6B5CC568B5FBF3F505612A
:1038100030BD29B12E4A526902432D4B5A6104E052
:103820002B4A526982432A4B5A61704729B1284A70
:1038300092690243264B9A6104E0254A92698243C9
:10384000234B9A61704729B1214AD2690243204B28
:10385000DA6104E01E4AD26982431D4BDA61704787
:1038600029B11B4AD2680243194BDA6004E0184AB6
:10387000D2688243164BDA60704729B1144A126944
:103880000243134B1A6104E0114A12698243104B40
:103890001A61704712494039086070470F49C8647F
:1038A00070470B49C87170470948406A40F0807002
:1038B00007494862704701460020054A92680A405D
:1038C0000AB1012000E0002070470149887270476A
:1038D000001002400000FFF8FFFFF6FE0000424229
:1038E0008004424200127A0000093D001C010020C1
:1038F0002C01002010B50446FE48844208D1012165
:10390000C014FFF7ADFF0021E014FFF7A9FFC4E0EA
:10391000B4F1804F08D101210846FFF7AEFF002126
:103920000120FFF7AAFFB8E0F348844208D1012143
:103930000220FFF7A2FF00210220FFF79EFFACE06C
:10394000EE48844208D101210420FFF796FF0021B0
:103950000420FFF792FFA0E0E948844208D101214A
:103960000820FFF78AFF00210820FFF786FF94E078
:10397000E448844208D101211020FFF77EFF002196
:103980001020FFF77AFF88E0DF48844208D1012148
:103990002020FFF772FF00212020FFF76EFF7CE060
:1039A000DA48844208D101214014FFF759FF002171
:1039B0006014FFF755FF70E0D548844209D101211A
:1039C000C804FFF74DFF00214FF40020FFF748FF28
:1039D00063E0D048844209D101210805FFF740FF88
:1039E00000214FF48010FFF73BFF56E0CA488442A5
:1039F00009D101214805FFF733FF00214FF40010E2
:103A0000FFF72EFF49E0C548844208D1012140203C
:103A1000FFF733FF00214020FFF72FFF3DE0C048B4
:103A2000844208D101218020FFF727FF0021802058
:103A3000FFF723FF31E0BB48844208D10121801504
:103A4000FFF71BFF0021A015FFF717FF25E0B64881
:103A5000844209D101210804FFF702FF00214FF43D
:103A60008030FFF7FDFE18E0B048844209D1012103
:103A70004804FFF7F5FE00214FF40030FFF7F0FE99
:103A80000BE0AB48844208D101218804FFF7E8FE2F
:103A900000214FF48020FFF7E3FE10BD00220288D2
:103AA000944B98420ED0994B98420BD0B0F1804F76
:103AB00008D0914B984205D0904B984202D0904B41
:103AC000984204D14FF68F731A404B881A438D4B9E
:103AD000984207D08C4B984204D04FF6FF431A40CF
:103AE000CB881A4302808B8883850B880385814BA2
:103AF00098420BD0854B984208D08B4B984205D00A
:103B00008A4B984202D08A4B984201D10B7A0386A5
:103B100001238382704770B5002400220023058CA6
:103B20004FF6FE7635400584028C8388048B4FF671
:103B30008F752C40B51E2C400D882C43751E2A40D5
:103B40000D892A434D882A436A4DA8420BD06F4DF8
:103B5000A84208D0744DA84205D0744DA84202D0A6
:103B6000734DA84213D14FF6F7752A404D892A4369
:103B70004FF6FB752A408D882A434FF6FF652B4090
:103B80004FF6FF552B408D892B43CD892B438380E6
:103B90000483CD888586028470BD70B50024002220
:103BA0000023058C4FF6EF7635400584028C838820
:103BB000048B48F6FF752C404FF6FF452C400D88CE
:103BC0004FF6FF7606EA05252C434FF6DF752A40AF
:103BD0000D8906EA05152A434D8806EA05152A438C
:103BE000444DA84202D0494DA8421DD14FF67F75E1
:103BF0002A404D894FF6FF7606EA05152A434FF60F
:103C0000BF752A408D8806EA05152A434FF6FF3511
:103C10002B404FF2FF752B408D8906EA85052B431B
:103C2000CD8906EA85052B4383800483CD880587EB
:103C3000028470BD70B5002400220023058C4FF66D
:103C4000FF6635400584028C8388848B4FF68F7520
:103C50002C404FF6FC752C400D882C434FF6FF5539
:103C60002A400D894FF6FF7606EA05252A434D883E
:103C700006EA05252A431F4DA84202D0234DA8423B
:103C80001DD14FF2FF752A404D894FF6FF7606EAA7
:103C900005252A434FF6FF352A408D8806EA05257B
:103CA0002A434EF6FF752B404DF6FF752B408D894C
:103CB00006EA05152B43CD8906EA05152B438380BB
:103CC0008483CD888587028470BD70B5002200236F
:103CD0000024058C4EF6FF7635400584038C8488DD
:103CE000828B48F6FF752A404FF6FF452A400D8823
:103CF00020E00000002C01400004004000080040CB
:103D0000000C00400010004000140040003401404E
:103D1000004C014000500140005401400018004098
:103D2000001C0040002000400040014000440140D1
:103D3000004801404FF6FF7606EA05252A434DF676
:103D4000FF752B400D8906EA05352B434D8806EAA1
:103D500005352B43FA4DA84202D0FA4DA84208D1AE
:103D60004BF6FF752C408D894FF6FF7606EA8515D8
:103D70002C4384808283CD88A0F84050038470BD9A
:103D8000828B4FF2FF331A408283828B4FF6FF7390
:103D900003EA01231A4382837047F0B50C461546A7
:103DA000002200210026078C4EF6FF7C07EA0C0754
:103DB0000784828B018C4FF6FF7707EA043640F6C2
:103DC000FF473A404FF6FF7707EA05273A434FF699
:103DD000FF7707EA03373A43D94FB8420ED0D94F9D
:103DE000B8420BD0B0F1804F08D0D74FB84205D0C1
:103DF000D64FB84202D0D64FB84206D14DF6FF7723
:103E0000394046F48057394305E047F6FF573940BB
:103E100044F48057394382830184F0BD828B4FF68E
:103E2000F3731A408283828B0A4382837047F0B512
:103E30000C461546002200210026078C4FF6FF6C29
:103E400007EA0C070784828B018C4FF6FF7707EA9D
:103E500004264FF60C773A404FF6FF7707EA031730
:103E60002F433A43B64FB8420ED0B64FB8420BD0AC
:103E7000B0F1804F08D0B44FB84205D0B34FB8422C
:103E800002D0B34FB84206D14FF6FF57394046F43F
:103E90008077394305E04FF2FF57394044F480778B
:103EA000394382830184F0BD028B4FF2FF331A4005
:103EB0000283028B4FF6FF7303EA01231A43028346
:103EC0007047F0B50C461546002200210026078CED
:103ED0004FF6EF7C07EA0C070784028B018C4FF644
:103EE000FF7707EA041640F6FF473A404FF6FF77A0
:103EF00007EA03373A434FF6FF7707EA05273A43C5
:103F00008F4FB8420ED08F4FB8420BD0B0F1804FD8
:103F100008D08D4FB84205D08C4FB84202D08C4F9C
:103F2000B84206D14FF6DF77394046F010073943E3
:103F300005E04FF65F77394044F0100739430283BC
:103F40000184F0BD028B4FF6F3731A400283028B9B
:103F50000A4302837047F0B50C4615460022002143
:103F6000068C4FF6FE773E400684028B018C4FF69E
:103F70000C7632407E1C06EA03162E433243704E06
:103F8000B0420ED06F4EB0420BD0B0F1804F08D08F
:103F90006D4EB04205D06D4EB04202D06C4EB04274
:103FA00006D14FF6FD76314044F00106314305E07D
:103FB0004FF6F576314044F0010631430283018427
:103FC000F0BD70B505460C465D4885420ED05D4893
:103FD00085420BD0B5F1804F08D05B48854205D0B3
:103FE0005A48854202D05A48854200D100E000BFBD
:103FF000208850B92389A28861882846FFF7ABFF43
:10400000E1882846FFF79EFF25E0208804280AD192
:104010002389A28861882846FFF753FFE188284654
:10402000FFF742FF17E0208808280AD12389A288D9
:1040300061882846FFF7FBFEE1882846FFF7EEFE81
:1040400009E02389A28861882846FFF7A6FEE18857
:104050002846FFF795FE70BD2DE9F04105460C4658
:1040600000260127608808B9022600E00026A08803
:10407000012801D1022700E001272088A0B9238967
:10408000A28861882846FFF766FFE1882846FFF787
:1040900059FF23893A4631462846FFF712FFE18847
:1040A0002846FFF701FF13E02389A288618828468C
:1040B000FFF707FFE1882846FFF7F6FE23893A4617
:1040C00031462846FFF747FFE1882846FFF73AFFC9
:1040D000BDE8F0810A884B881A438B881A43CB8845
:1040E0001A430B891A434B891A438B891A43A0F848
:1040F000442070474FF6FF71818000210180C1800C
:104100004180017270470021018041808180C1801F
:10411000018141818181C1817047002101804180FD
:10412000012181800021C18001817047002101802F
:1041300041808180C180018141818181704700007F
:10414000002C014000340140000400400008004001
:10415000000C004021B1028842F00102028004E01C
:1041600002884FF6FE731A400280704731B1B0F8F2
:10417000442042F40042A0F8442005E0B0F8442076
:10418000C2F30E02A0F8442070471AB183890B4392
:10419000838102E083898B438381704781827047EA
:1041A00041EA0203A0F8483070471AB183890B43F3
:1041B000838102E083898B438381704701894FF6B5
:1041C000F8721140018170470A46002101894FF6BB
:1041D0008F73194011430181704730B504460D4675
:1041E00029462046FFF7F0FF208940F00700208194
:1041F00030BD2DE9F04104460D4616461F46602DA0
:1042000006D13B46012231462046FFF75AFE05E023
:104210003B46012231462046FFF79DFE29462046B7
:10422000FFF7D2FF208940F007002081BDE8F08130
:1042300030B50C4600210189C9B24FF6FF7505EA79
:104240000325154325432943018130BD2DE9F04164
:1042500005460E4617469846002443463A463146E0
:104260002846FFF7E5FF2C894FF6F870044044F02C
:1042700007044FF68F70044044F070042C81BDE8B1
:10428000F081F0B504460D4616461F463B463246C1
:1042900029462046FFF7CCFF208940F4804020814A
:1042A000F0BD0185828270470A46002101884FF6E1
:1042B0008F731940114301807047F0B50C461546C5
:1042C0001E460021002200230189028B038C4FF639
:1042D000F877394021434FF6FC473A4040F2011746
:1042E0003A434FF6DD773B404FF6FF7707EA061774
:1042F0002F433B43018102830384F0BD0A46002122
:10430000018B4FF68F7319401143018370470A46A2
:104310000021018B48F6FF7319404FF6FF7303EA43
:1043200002231943018370470A460021818B4FF60F
:104330008F7319401143818370470A460021818B96
:1043400048F6FF7319404FF6FF7303EA022319433F
:104350008183704721B1028842F08002028004E02C
:1043600002884FF67F731A400280704721B182881D
:1043700042F00402828004E082884FF6FB731A4008
:104380008280704721B1828842F00802828004E076
:1043900082884FF6F7731A408280704721B1828875
:1043A00042F00102828004E082884FF6FE731A40D8
:1043B000828070470A460021018B4FF6F77319403F
:1043C0001143018370470A460021018B4FF2FF73AE
:1043D00019404FF6FF7303EA022319430183704724
:1043E0000A460021818B4FF6F773194011438183F0
:1043F00070470A460021818B4FF2FF7319404FF638
:10440000FF7303EA02231943818370470A460021A0
:10441000018B4FF6FB7319401143018370470A4625
:104420000021018B4FF6FF3319404FF6FF7303EA6B
:1044300002231943018370470A460021818B4FF6FE
:10444000FB7319401143818370470A460021818B19
:104450004FF6FF3319404FF6FF7303EA0223194367
:10446000818370470A460021018B4FF67F73194004
:104470001143018370470A460021018BC1F30E01ED
:104480004FF6FF7303EA02231943018370470A467C
:104490000021818B4FF67F73194011438183704750
:1044A0000A460021818BC1F30E014FF6FF7303EA28
:1044B00002231943818370470A460021018C4FF67D
:1044C000FD7319401143018470470A460021018C95
:1044D0004FF6F77319401143018470470A460021D3
:1044E000018C4FF6DF7319404FF6FF7303EA021396
:1044F0001943018470470A460021018C4FF67F73EF
:1045000019404FF6FF7303EA021319430184704701
:104510000A460021018C4FF6FF5319404FF6FF73F6
:1045200003EA02231943018470470A460021018CE3
:104530004FF2FF7319404FF6FF7303EA022319434A
:10454000018470470A460021018C4DF6FF73194023
:104550004FF6FF7303EA023319430184704730B505
:10456000002301248C40A3B2048C9C430484048C5B
:1045700002FA01F5ADB22C43048430BD30B50023FE
:1045800004248C40A3B2048C9C430484048C02FA5F
:1045900001F5ADB22C43048430BD70B50346002054
:1045A00000241846183001258D40ACB21D8CA5435F
:1045B0001D8409B1082909D100EB6100056825F0C7
:1045C000700505600568154305600EE00D1FC5F315
:1045D0004E052844056825F4E045056005684FF65A
:1045E000FF7606EA02263543056070BD21B10288D8
:1045F00042F00202028004E002884FF6FD731A4086
:104600000280704721B1028842F00402028004E077
:1046100002884FF6FB731A400280704721B18288EE
:1046200042F08002828004E082884FF67F731A4055
:104630008280704702884FF6F7731A400280028822
:104640000A430280704782884FF68F731A40828037
:1046500082880A438280704702894FF6F8731A40B5
:10466000028102890A430281704702894FF67F73F3
:104670001A40028102890A4302817047818470478F
:1046800081857047818670470187704781877047B1
:10469000A0F84010704702884FF6FF431A4002808E
:1046A00002880A43028070470146888E704701469F
:1046B000088F70470146888F70470146B1F8400067
:1046C00070470146888C70470146088D7047024646
:1046D0000020138A0B400BB1012000E0002070473E
:1046E000CA430282704730B50246002000230024EE
:1046F000158A05EA0103958905EA010413B10CB195
:10470000012000E0002030BDCA4302827047000053
:1047100010B50446FB48844209D101218803FFF704
:104720009FF800214FF48040FFF79AF832E0F648F6
:10473000844209D101214804FFF79FF800214FF47A
:104740000030FFF79AF825E0F048844209D10121B2
:104750008804FFF792F800214FF48020FFF78DF8CE
:1047600018E0EB48844209D10121C804FFF785F81D
:1047700000214FF40020FFF780F80BE0E548844269
:1047800008D101210805FFF778F800214FF48010C7
:10479000FFF773F810BD2DE9F04786B005460E46C9
:1047A0000024A24600BFA1460027B08900B100BF87
:1047B0002F462C8A4CF6FF700440F08804432C826C
:1047C000AC894EF6F3100440B088318908437189F2
:1047D00008430443AC81AC8A4FF6FF400440B089E3
:1047E0000443AC8201A8FEF7B4FFC648874202D159
:1047F000DDF810A001E0DDF80CA0A88900F400406D
:1048000040B10AEBCA0000EB0A1031684900B0FB66
:10481000F1F807E00AEBCA0000EB0A1031688900E2
:10482000B0FBF1F86420B8FBF0F00401200964212A
:1048300001FB1089A88900F4004040B1322000EB50
:10484000C900B0FBF1F000F00700044308E032209B
:1048500000EB09106421B0FBF1F000F00F000443FD
:104860002C8106B0BDE8F0874FF41651016000219D
:104870008180C18001810C214181002181817047AB
:1048800010B502460020108A4FF2FF0318400B8833
:104890004C8823438C882343CC88234318431082BD
:1048A00010BD0021018041808180C180704721B10D
:1048B000828942F40052828104E082894DF6FF73BE
:1048C0001A4082817047F0B5034600240026002577
:1048D000002040F66A17B94200D100BF1846C1F364
:1048E000421401F01F06012707FA06F5012C01D139
:1048F0000C3004E0022C01D1103000E014301AB169
:1049000007682F43076002E00768AF430760F0BD08
:104910001AB1838A0B43838202E0838A8B438382AA
:104920007047028A4FF6F0731A400282028A0A43E5
:104930000282704782894FF2FF731A408281828916
:104940000A438281704721B1828942F0020282814A
:1049500004E082894FF6FD731A4082817047028A13
:104960004FF6DF731A400282028A0A4302827047BE
:1049700021B1028A42F48042028204E0028A4BF6AC
:10498000FF731A4002827047C1F3080282807047A9
:1049900001468888C0F308007047818941F0010111
:1049A00081817047028BD2B20283028B42EA0122DC
:1049B00002837047028B02F47F420283028B0A4318
:1049C0000283704721B1828A42F02002828204E091
:1049D000828A4FF6DF731A408282704721B1828A41
:1049E00042F01002828204E0828A4FF6EF731A408E
:1049F0008282704721B1828A42F00802828204E0FA
:104A0000828A4FF6F7731A408282704721B18289F9
:104A100042F40042828103E08289C2F30E02828165
:104A2000704721B1828A42F40062828204E0828A65
:104A30004FF2FF731A4082827047828A4FF6FB73EF
:104A40001A408282828A0A438282704721B1828A16
:104A500042F00202828204E0828A4FF6FD731A401D
:104A60008282704702460020B1F5007F00D100BF6E
:104A700013880B400BB1012000E00020704701F4C7
:104A80000072B2F5007F00D100BFCA4302807047B8
:104A900070B50246002400230025002040F66A1667
:104AA000B14200D100BFC1F3421501F01F0301263E
:104AB00006FA03F3012D02D19689334006E0022D58
:104AC00002D1168A334001E0968A33400C12012647
:104AD00006FA04F41688344013B10CB1012000E04A
:104AE000002070BD10B50022002340F66A14A142D8
:104AF00000D100BF0A1201249440A3B2DC43048019
:104B000010BD000000380140004400400048004053
:104B1000004C00400050004038B50446FB4890F877
:104B20002400C0B114B10220009001E000200090E8
:104B3000F64A1268D17BF54A526810786B4601221A
:104B4000FCF7AEF910B14FF0FF3038BD9DF8001002
:104B5000EE48417423E0ED48807A10B94FF0FF3001
:104B6000F3E724B1E948407C08B10020EDE714B137
:104B70000120009001E000200090E44A1268D17BFF
:104B8000E24A526810786B460122FCF789F910B1AD
:104B90004FF0FF30D9E79DF80010DC484174002049
:104BA000D3E738B5002419E0D8480068C07AA0429D
:104BB00004D0D6480068407DA04200D10CE0D34923
:104BC000496808786B4601222146FCF7CDF910B1FF
:104BD0004FF0FF3038BD00BF601CC4B2CB48406806
:104BE0000079A042E0DC0020F4E770B504460D46F1
:104BF000C6480068C07AA04204D0C4480068407D1E
:104C0000A04202D14FF0FF3070BDC048406800792B
:104C1000A04202DC4FF0FF30F6E7BC494968087853
:104C20002B4601222146FCF79FF9EDE738B50446F3
:104C3000B64890F82300A04201D1002038BD14B13D
:104C40003020009001E000200090B048807C20B12E
:104C50009DF8000040F002000090AC4890F822005F
:104C600020B19DF8000040F080000090A74A126833
:104C7000117DA64A526810786B460122FCF710F9A4
:104C800010B14FF0FF30D9E7A04880F82340002052
:104C9000D4E738B5044604F0700010B1012000904C
:104CA00005E014B10020009001E040200090974AF8
:104CB0001268917C954A526810786B460122FCF785
:104CC000EFF820B1002191488172481E38BD9DF84F
:104CD000000020F040018D4801730020009004F096
:104CE000400020B99DF8000040F00400009004F05E
:104CF000200020B99DF8000040F00200009004F070
:104D0000100020B99DF8000040F00100009004F070
:104D1000080020B99DF8000040F0380000907B4A60
:104D20001268D17C794A526810786B460122FCF7F0
:104D3000B7F820B1002175488172481EC6E724B13A
:104D4000082C02D00020FFF771FF70488472002108
:104D500001753220FBF7D4FB0020B7E738B50446D5
:104D60006A48807CA04201D1002038BD002C46D08A
:104D7000664A12681179654A526810786B460122BA
:104D8000FCF7F2F810B14FF0FF30EEE79DF80000AD
:104D900020F0200000905D4A126811795B4A526849
:104DA00010786B460122FCF77BF810B14FF0FF3012
:104DB000DBE70320FBF7A4FB02200090534890F8A8
:104DC000220020B19DF8000040F0800000904F4884
:104DD00090F8230020B19DF8000040F030000090D2
:104DE0004A4A1268117D494A526810786B4601227E
:104DF000FCF756F8002851D04FF0FF30B5E7434A92
:104E000012681179414A526810786B460122FCF70A
:104E1000ABF810B14FF0FF30A7E73C48807A00F0C4
:104E2000010028B19DF8000040F02000009004E04F
:104E30009DF8000020F020000090344A126811799B
:104E4000324A526810786B460122FCF729F810B1FB
:104E50004FF0FF3089E70320FBF752FB2B4890F817
:104E6000220010B18020009001E00020009027482F
:104E700090F8230020B19DF8000040F03000009031
:104E8000224A1268117D214A526810786B4601222D
:104E9000FCF706F810B14FF0FF3066E71B4884744A
:104EA000002062E708B51948807A10B94FF0FF304A
:104EB00008BD00200090154A1268D17B134A526841
:104EC00010786B460122FBF7EBFF10B14FF0FF307B
:104ED000EEE70E4A126851790C4A526810786B4618
:104EE0000122FBF7DDFF10B14FF0FF30E0E7074A8A
:104EF00012681179054A526810786B460122FBF757
:104F0000CFFF28B14FF0FF30D2E700003001002082
:104F1000F74890F82400002850D00C200090F44A64
:104F200012681179F24A526810786B460122FBF739
:104F3000B7FF10B14FF0FF30BAE7C0200090EC4847
:104F4000807A00F0010020B19DF8000040F02000C0
:104F50000090E74A12681179E54A526810786B466A
:104F60000122FBF79DFF10B14FF0FF30A0E7E048B2
:104F7000407C10B10220009001E000200090DC4A4B
:104F80001268D17BDA4A526810786B460122FBF72F
:104F900087FF10B14FF0FF308AE700200090D44A1D
:104FA00012685179D24A526810786B460122FBF799
:104FB00077FF002852D04FF0FF3079E704200090AF
:104FC000CB4A12681179CA4A526810786B4601229E
:104FD000FBF766FF10B14FF0FF3069E7C448807CF3
:104FE00020B9C348807A00F0010010B94020009039
:104FF00001E060200090BE4A12681179BC4A5268F4
:1050000010786B460122FBF74BFF10B14FF0FF30D9
:105010004EE7B748407C10B10120009001E000202D
:105020000090B34A1268D17BB14A526810786B463F
:105030000122FBF735FF10B14FF0FF3038E7AC4AE3
:1050400012685179AA4A52681078A94B103301228C
:10505000FBF726FF10B14FF0FF3029E7002027E7CC
:1050600070B50446002624F00104A14890F82400FD
:1050700008B1002070BD9E48807A10B94FF0FF3013
:10508000F8E79B48057C807A2040994908740846D7
:10509000007CA04202D04FF0FF3600E0002614B999
:1050A0009348007D18B10120FFF736FD02E0002093
:1050B000FFF732FD3CB1FFF7F5FE20B18C480574D7
:1050C0004FF0FF30D6E73046D4E738B5044688487D
:1050D000807A10B94FF0FF3038BDBC2C02DB0120C4
:1050E000009015E0622C02DB0220009010E02A2CD8
:1050F00002DB032000900BE0142C02DB0420009064
:1051000006E00A2C02DB0520009001E0062000905A
:105110007748C07A9DF80010884201D10020DBE773
:10512000734A12689178724A526810786B4601226D
:10513000FBF7B6FE10B14FF0FF30CDE79DF8001041
:105140006B48C1720020C7E738B50446282C02DD41
:105150004FF0FF3038BDDCB90020FFF767FD0020BD
:105160008DF8000007208DF80100614A1268917CDB
:105170005F4A526810786B460222FBF791FE10B12D
:105180004FF0FF30E6E70021594801750020E1E7C4
:105190000120FFF74BFD20208DF80000012C06D1E7
:1051A00000208DF801000520FFF78FFF17E0052C88
:1051B00006DC01208DF801000520FFF786FF0EE0D8
:1051C000142C06DC02208DF801000A20FFF77DFF79
:1051D00005E003208DF801001420FFF776FF9DF80D
:1051E0000100072101EB8010C0B28DF80100404A98
:1051F0001268917C3E4A526810786B460222FBF797
:105200004FFE10B14FF0FF30A4E7082138488172FB
:1052100000210173012101750020FFF721FF00200B
:1052200098E738B504463248807A10B94FF0FF301D
:1052300038BD2F4890F8240010B14FF0FF30F7E749
:105240002B48007D50B134B1282C04DCE0B2FFF7CC
:105250007BFF0020ECE70020FFF776FF042C01DA4B
:10526000042404E0B4F57A7F01DD4FF47A744FF43E
:105270007A7090FBF4F0401EC0B200901C4A126895
:1052800051781B4A526810786B460122FBF708FEE2
:1052900010B14FF0FF30CBE79DF80000401C4FF4F9
:1052A0007A7191FBF0F081B21148C1810146C98940
:1052B0004810FFF70AFF0020BAE738B504460C484B
:1052C000807A10B94FF0FF3038BD022C06D0042C84
:1052D00007D0082C08D0102C0FD10BE00020009034
:1052E0000EE0082000900BE01020009008E0000085
:1052F000300100201820009002E04FF0FF30E3E77B
:1053000000BFF948407A9DF80010B0EBE10F01D1E1
:105310000020D9E7F44A1268D179F34A526810782C
:105320006B460122FBF7BCFD10B14FF0FF30CBE71D
:105330009DF80000C110EC4841720020C4E738B568
:105340000446E948807A10B94FF0FF3038BDFA2C96
:1053500009D0B4F5FA7F09D0B4F57A7F09D0B4F555
:10536000FA6F0CD108E0002000900BE008200090BC
:1053700008E01020009005E01820009002E04FF0B7
:10538000FF30E3E700BFD848007A9DF80010B0EB8B
:10539000E10F01D10020D9E7D34A12689179D24AAE
:1053A000526810786B460122FBF77AFD10B14FF07E
:1053B000FF30CBE79DF80000C010CB4908720020F9
:1053C000C4E71CB580208DF80000C74A1268917CA4
:1053D000C54A526810786B460122FBF761FD10B197
:1053E0004FF0FF301CBD6420FBF78AF800208DF8D9
:1053F0000000BD4A1268917CBB4A526810786B4627
:105400000122FBF74DFD10B14FF0FF30EAE7B64A3D
:105410001268917DB44A526810786B460622FBF7F9
:10542000A3FD10B14FF0FF30DCE79DF80500C00789
:10543000400F9DF8031001F0010140EA41009DF882
:10544000011001F0010140EA010494B1012C03D1E3
:105450000121A548C17431E0022C03D10021A248EA
:10546000C1742BE02146A1A002F07CF94FF0FF307F
:10547000B8E79D4A1268D1789B4A526810786B460B
:105480000122FBF771FD10B14FF0FF30AAE79DF844
:10549000000000F00F042CB99E4802F063F94FF0B1
:1054A000FF309FE7042C06D19BA002F05BF901219D
:1054B0008D48C17402E000218B48C174FF218A48E5
:1054C0008172FF2088490872FF2187484172C172AA
:1054D0004FF6FF71C181FF210174817401210173B5
:1054E00080F82210002180F82310417501751630D4
:1054F000016041608160163880F8241080F8251022
:10550000C1844FF4FA60FFF71AFF10B14FF0FF307B
:1055100068E70220FFF7D1FE10B14FF0FF3061E7DE
:105520002A20FFF7D2FD10B14FF0FF305AE73220AA
:10553000FFF777FE10B14FF0FF3053E70020FFF781
:105540008FFD10B14FF0FF304CE70020FFF706FC55
:1055500010B14FF0FF3045E70020FFF79AFB002025
:1055600040E770477CB504460D465F48807A00F0FE
:10557000700010B94FF0FF307CBD5B4A1268117BA0
:10558000594A526810786B460622FBF7EDFC10B1C1
:105590004FF0FF30F0E79DF801009DF8001040EA61
:1055A000012000B220809DF803009DF8021040EA1F
:1055B000012000B260809DF805009DF8041040EACB
:1055C000012000B2A08015B12846FFF7CAFF0020D5
:1055D000D2E77CB504460D464348807A00F00800C7
:1055E00010B94FF0FF307CBD3F4A1268517B3E4AF4
:1055F000526810786B460622FBF7B6FC10B14FF0EC
:10560000FF30F0E79DF801009DF8001040EA01200E
:1056100000B220809DF803009DF8021040EA0120AE
:1056200000B260809DF805009DF8041040EA01205A
:1056300000B2A08015B12846FFF793FF0020D2E703
:105640002DE9FE4F05460C462748807A18B94FF0E1
:10565000FF30BDE8FE8F244A1268917B224A5268CF
:10566000107802AB0222FBF77FFC10B14FF0FF3045
:10567000EFE79DF809009DF8081040EA012006B206
:1056800014B12046FFF76DFF17494968C88803F039
:10569000D3FD154901904968B1F9080003F0B4FD44
:1056A0008346304603F0B0FD5946009003F014FFE6
:1056B0008246019903F076FC81461F4903F004FC01
:1056C00080464FF08F4103F0FFFD074603F060FD79
:1056D00028600020BDE710B588B004461CB94FF023
:1056E000FF3008B010BD29E030010020556E737501
:1056F00070706F7274656420736F66747761726521
:105700002070726F64756374207265762025642E34
:105710000A00000050AE000848616C662073656E98
:105720007369746976697479207061727420666F28
:10573000756E642E0D0A000000000C42206830B91E
:10574000606820B9A06810B9002008B010BDFA49FF
:105750004968087806AB03221146FBF705FC10B137
:105760004FF0FF30F1E79DF81800082101EB201001
:1057700000F00F00ADF800009DF8190001EB2010BB
:1057800000F00F00ADF802009DF81A0001EB2010A8
:1057900000F00F00ADF8040020684100BDF90000E2
:1057A000403091FBF0F000B2ADF8100060684100AD
:1057B000BDF90200403091FBF0F000B2ADF81200EC
:1057C000A0684100BDF90400403091FBF0F000B248
:1057D000ADF81400D8494968087806AB062211468E
:1057E000FBF7C2FB10B14FF0FF30AEE79DF8190098
:1057F0009DF8181040EA012000B2ADF808009DF8AD
:105800001B009DF81A1040EA012000B2ADF80A0012
:105810009DF81D009DF81C1040EA012000B2ADF873
:105820000C00BDF81000BDF80810084400B2ADF837
:105830001000BDF81200BDF80A10084400B2ADF81F
:105840001200BDF81400BDF80C10084400B2ADF809
:105850001400BDF81000000A8DF81800BDF8100003
:10586000C0B28DF81900BDF81200000A8DF81A00B8
:10587000BDF81200C0B28DF81B00BDF81400000A7C
:105880008DF81C00BDF81400C0B28DF81D00AA49A7
:105890004968087806AB06221146FBF701FB10B1F8
:1058A0004FF0FF3051E700204FE70146A248007A51
:1058B00030B1012807D0022809D003280FD10AE00F
:1058C000FA2008800EE04FF4FA7008800AE04FF4E6
:1058D0007A70088006E04FF4FA60088002E0002049
:1058E000088000BF00BF0020704701469248407A00
:1058F00030B1012807D0022808D003280CD108E0D5
:10590000022008700BE00420087008E008200870EE
:1059100005E01020087002E04FF0FF30704700BF34
:105920008548C07C18B108784006000E0870002039
:10593000F4E701468048C07A082817D2DFE800F073
:105940001704070A0D101318BC20088013E062200A
:10595000088010E02A2008800DE0142008800AE06A
:105960000A20088007E00520088004E000BF00BF8F
:105970000020088000BF00BF0020704701466E482D
:1059800090F8240010B14FF0FF3070476A48C0898A
:1059900008800020F9E7014600200880401E70477B
:1059A00001464FF0FF30704701466348007A30B13E
:1059B000012807D0022808D003280CD108E05F484E
:1059C00008600BE05E48086008E05E48086005E09B
:1059D0005D48086002E04FF0FF30704700BF0020D4
:1059E000FBE701465448407A30B1012808D002282C
:1059F0000AD0032810D10BE04FF4804008800EE05D
:105A000041F69C7008800AE04FF48050088006E060
:105A10004FF40060088002E04FF0FF30704700BF95
:105A20004548C07C10B10888401008800020F5E788
:105A300001464148007C08700020704701463E48FE
:105A4000807A10B10120087001E000200870002069
:105A5000704738B504463848807A10B94FF0FF30A7
:105A600038BD354A1268117C334A526810786B464B
:105A70000222FBF779FA10B14FF0FF30F0E79DF802
:105A800001009DF8001040EA012000B220800020B3
:105A9000E6E72DE9FE4F0746884692461D46DDF8AB
:105AA00030B000260024244890F8240010B1601E75
:105AB000BDE8FE8F002028701F48807A10B94FF093
:105AC000FF30F5E71C48007C10B94FF0FF30EFE7DE
:105AD0001948007C00F0400008B1B01CC6B216485E
